{
  "_format": "hh-sol-artifact-1",
  "contractName": "SimpleNFT",
  "sourceName": "contracts/example_nt.sol",
  "abi": [
    {
      "inputs": [],
      "stateMutability": "nonpayable",
      "type": "constructor"
    },
    {
      "inputs": [
        {
          "internalType": "address",
          "name": "sender",
          "type": "address"
        },
        {
          "internalType": "uint256",
          "name": "tokenId",
          "type": "uint256"
        },
        {
          "internalType": "address",
          "name": "owner",
          "type": "address"
        }
      ],
      "name": "ERC721IncorrectOwner",
      "type": "error"
    },
    {
      "inputs": [
        {
          "internalType": "address",
          "name": "operator",
          "type": "address"
        },
        {
          "internalType": "uint256",
          "name": "tokenId",
          "type": "uint256"
        }
      ],
      "name": "ERC721InsufficientApproval",
      "type": "error"
    },
    {
      "inputs": [
        {
          "internalType": "address",
          "name": "approver",
          "type": "address"
        }
      ],
      "name": "ERC721InvalidApprover",
      "type": "error"
    },
    {
      "inputs": [
        {
          "internalType": "address",
          "name": "operator",
          "type": "address"
        }
      ],
      "name": "ERC721InvalidOperator",
      "type": "error"
    },
    {
      "inputs": [
        {
          "internalType": "address",
          "name": "owner",
          "type": "address"
        }
      ],
      "name": "ERC721InvalidOwner",
      "type": "error"
    },
    {
      "inputs": [
        {
          "internalType": "address",
          "name": "receiver",
          "type": "address"
        }
      ],
      "name": "ERC721InvalidReceiver",
      "type": "error"
    },
    {
      "inputs": [
        {
          "internalType": "address",
          "name": "sender",
          "type": "address"
        }
      ],
      "name": "ERC721InvalidSender",
      "type": "error"
    },
    {
      "inputs": [
        {
          "internalType": "uint256",
          "name": "tokenId",
          "type": "uint256"
        }
      ],
      "name": "ERC721NonexistentToken",
      "type": "error"
    },
    {
      "inputs": [
        {
          "internalType": "address",
          "name": "owner",
          "type": "address"
        }
      ],
      "name": "OwnableInvalidOwner",
      "type": "error"
    },
    {
      "inputs": [
        {
          "internalType": "address",
          "name": "account",
          "type": "address"
        }
      ],
      "name": "OwnableUnauthorizedAccount",
      "type": "error"
    },
    {
      "anonymous": false,
      "inputs": [
        {
          "indexed": true,
          "internalType": "address",
          "name": "owner",
          "type": "address"
        },
        {
          "indexed": true,
          "internalType": "address",
          "name": "approved",
          "type": "address"
        },
        {
          "indexed": true,
          "internalType": "uint256",
          "name": "tokenId",
          "type": "uint256"
        }
      ],
      "name": "Approval",
      "type": "event"
    },
    {
      "anonymous": false,
      "inputs": [
        {
          "indexed": true,
          "internalType": "address",
          "name": "owner",
          "type": "address"
        },
        {
          "indexed": true,
          "internalType": "address",
          "name": "operator",
          "type": "address"
        },
        {
          "indexed": false,
          "internalType": "bool",
          "name": "approved",
          "type": "bool"
        }
      ],
      "name": "ApprovalForAll",
      "type": "event"
    },
    {
      "anonymous": false,
      "inputs": [
        {
          "indexed": true,
          "internalType": "address",
          "name": "previousOwner",
          "type": "address"
        },
        {
          "indexed": true,
          "internalType": "address",
          "name": "newOwner",
          "type": "address"
        }
      ],
      "name": "OwnershipTransferred",
      "type": "event"
    },
    {
      "anonymous": false,
      "inputs": [
        {
          "indexed": true,
          "internalType": "address",
          "name": "from",
          "type": "address"
        },
        {
          "indexed": true,
          "internalType": "address",
          "name": "to",
          "type": "address"
        },
        {
          "indexed": true,
          "internalType": "uint256",
          "name": "tokenId",
          "type": "uint256"
        }
      ],
      "name": "Transfer",
      "type": "event"
    },
    {
      "inputs": [
        {
          "internalType": "address",
          "name": "to",
          "type": "address"
        },
        {
          "internalType": "uint256",
          "name": "tokenId",
          "type": "uint256"
        }
      ],
      "name": "approve",
      "outputs": [],
      "stateMutability": "nonpayable",
      "type": "function"
    },
    {
      "inputs": [
        {
          "internalType": "address",
          "name": "owner",
          "type": "address"
        }
      ],
      "name": "balanceOf",
      "outputs": [
        {
          "internalType": "uint256",
          "name": "",
          "type": "uint256"
        }
      ],
      "stateMutability": "view",
      "type": "function"
    },
    {
      "inputs": [],
      "name": "baseURI",
      "outputs": [
        {
          "internalType": "string",
          "name": "",
          "type": "string"
        }
      ],
      "stateMutability": "view",
      "type": "function"
    },
    {
      "inputs": [
        {
          "internalType": "uint256",
          "name": "tokenId",
          "type": "uint256"
        }
      ],
      "name": "getApproved",
      "outputs": [
        {
          "internalType": "address",
          "name": "",
          "type": "address"
        }
      ],
      "stateMutability": "view",
      "type": "function"
    },
    {
      "inputs": [
        {
          "internalType": "address",
          "name": "owner",
          "type": "address"
        },
        {
          "internalType": "address",
          "name": "operator",
          "type": "address"
        }
      ],
      "name": "isApprovedForAll",
      "outputs": [
        {
          "internalType": "bool",
          "name": "",
          "type": "bool"
        }
      ],
      "stateMutability": "view",
      "type": "function"
    },
    {
      "inputs": [],
      "name": "maxSupply",
      "outputs": [
        {
          "internalType": "uint256",
          "name": "",
          "type": "uint256"
        }
      ],
      "stateMutability": "view",
      "type": "function"
    },
    {
      "inputs": [],
      "name": "mint",
      "outputs": [],
      "stateMutability": "nonpayable",
      "type": "function"
    },
    {
      "inputs": [],
      "name": "name",
      "outputs": [
        {
          "internalType": "string",
          "name": "",
          "type": "string"
        }
      ],
      "stateMutability": "view",
      "type": "function"
    },
    {
      "inputs": [],
      "name": "nextTokenId",
      "outputs": [
        {
          "internalType": "uint256",
          "name": "",
          "type": "uint256"
        }
      ],
      "stateMutability": "view",
      "type": "function"
    },
    {
      "inputs": [],
      "name": "owner",
      "outputs": [
        {
          "internalType": "address",
          "name": "",
          "type": "address"
        }
      ],
      "stateMutability": "view",
      "type": "function"
    },
    {
      "inputs": [
        {
          "internalType": "uint256",
          "name": "tokenId",
          "type": "uint256"
        }
      ],
      "name": "ownerOf",
      "outputs": [
        {
          "internalType": "address",
          "name": "",
          "type": "address"
        }
      ],
      "stateMutability": "view",
      "type": "function"
    },
    {
      "inputs": [],
      "name": "renounceOwnership",
      "outputs": [],
      "stateMutability": "nonpayable",
      "type": "function"
    },
    {
      "inputs": [
        {
          "internalType": "address",
          "name": "from",
          "type": "address"
        },
        {
          "internalType": "address",
          "name": "to",
          "type": "address"
        },
        {
          "internalType": "uint256",
          "name": "tokenId",
          "type": "uint256"
        }
      ],
      "name": "safeTransferFrom",
      "outputs": [],
      "stateMutability": "nonpayable",
      "type": "function"
    },
    {
      "inputs": [
        {
          "internalType": "address",
          "name": "from",
          "type": "address"
        },
        {
          "internalType": "address",
          "name": "to",
          "type": "address"
        },
        {
          "internalType": "uint256",
          "name": "tokenId",
          "type": "uint256"
        },
        {
          "internalType": "bytes",
          "name": "data",
          "type": "bytes"
        }
      ],
      "name": "safeTransferFrom",
      "outputs": [],
      "stateMutability": "nonpayable",
      "type": "function"
    },
    {
      "inputs": [
        {
          "internalType": "address",
          "name": "operator",
          "type": "address"
        },
        {
          "internalType": "bool",
          "name": "approved",
          "type": "bool"
        }
      ],
      "name": "setApprovalForAll",
      "outputs": [],
      "stateMutability": "nonpayable",
      "type": "function"
    },
    {
      "inputs": [
        {
          "internalType": "string",
          "name": "_newBaseURI",
          "type": "string"
        }
      ],
      "name": "setBaseURI",
      "outputs": [],
      "stateMutability": "nonpayable",
      "type": "function"
    },
    {
      "inputs": [
        {
          "internalType": "bytes4",
          "name": "interfaceId",
          "type": "bytes4"
        }
      ],
      "name": "supportsInterface",
      "outputs": [
        {
          "internalType": "bool",
          "name": "",
          "type": "bool"
        }
      ],
      "stateMutability": "view",
      "type": "function"
    },
    {
      "inputs": [],
      "name": "symbol",
      "outputs": [
        {
          "internalType": "string",
          "name": "",
          "type": "string"
        }
      ],
      "stateMutability": "view",
      "type": "function"
    },
    {
      "inputs": [
        {
          "internalType": "uint256",
          "name": "tokenId",
          "type": "uint256"
        }
      ],
      "name": "tokenURI",
      "outputs": [
        {
          "internalType": "string",
          "name": "",
          "type": "string"
        }
      ],
      "stateMutability": "view",
      "type": "function"
    },
    {
      "inputs": [
        {
          "internalType": "address",
          "name": "from",
          "type": "address"
        },
        {
          "internalType": "address",
          "name": "to",
          "type": "address"
        },
        {
          "internalType": "uint256",
          "name": "tokenId",
          "type": "uint256"
        }
      ],
      "name": "transferFrom",
      "outputs": [],
      "stateMutability": "nonpayable",
      "type": "function"
    },
    {
      "inputs": [
        {
          "internalType": "address",
          "name": "newOwner",
          "type": "address"
        }
      ],
      "name": "transferOwnership",
      "outputs": [],
      "stateMutability": "nonpayable",
      "type": "function"
    }
  ],
  "bytecode": "0x60a0604052600060809081526007906200001a9082620001d0565b5061014d60085560016009553480156200003357600080fd5b50336040518060400160405280600a81526020016914da5b5c1b194813919560b21b8152506040518060400160405280600481526020016314d3919560e21b8152508160009081620000869190620001d0565b506001620000958282620001d0565b5050506001600160a01b038116620000c757604051631e4fbdf760e01b81526000600482015260240160405180910390fd5b620000d281620000d9565b506200029c565b600680546001600160a01b038381166001600160a01b0319831681179093556040519116919082907f8be0079c531659141344cd1fd0a4f28419497f9722a3daafe3b4186f6b6457e090600090a35050565b634e487b7160e01b600052604160045260246000fd5b600181811c908216806200015657607f821691505b6020821081036200017757634e487b7160e01b600052602260045260246000fd5b50919050565b601f821115620001cb57600081815260208120601f850160051c81016020861015620001a65750805b601f850160051c820191505b81811015620001c757828155600101620001b2565b5050505b505050565b81516001600160401b03811115620001ec57620001ec6200012b565b6200020481620001fd845462000141565b846200017d565b602080601f8311600181146200023c5760008415620002235750858301515b600019600386901b1c1916600185901b178555620001c7565b600085815260208120601f198616915b828110156200026d578886015182559484019460019091019084016200024c565b50858210156200028c5787850151600019600388901b60f8161c191681555b5050505050600190811b01905550565b6113ae80620002ac6000396000f3fe608060405234801561001057600080fd5b50600436106101375760003560e01c806370a08231116100b8578063a22cb4651161007c578063a22cb46514610260578063b88d4fde14610273578063c87b56dd14610286578063d5abeb0114610299578063e985e9c5146102a2578063f2fde38b146102b557600080fd5b806370a0823114610215578063715018a61461023657806375794a3c1461023e5780638da5cb5b1461024757806395d89b411461025857600080fd5b806323b872dd116100ff57806323b872dd146101c157806342842e0e146101d457806355f804b3146101e75780636352211e146101fa5780636c0360eb1461020d57600080fd5b806301ffc9a71461013c57806306fdde0314610164578063081812fc14610179578063095ea7b3146101a45780631249c58b146101b9575b600080fd5b61014f61014a366004610e8a565b6102c8565b60405190151581526020015b60405180910390f35b61016c61031a565b60405161015b9190610ef7565b61018c610187366004610f0a565b6103ac565b6040516001600160a01b03909116815260200161015b565b6101b76101b2366004610f3f565b6103d5565b005b6101b76103e4565b6101b76101cf366004610f69565b610455565b6101b76101e2366004610f69565b6104e0565b6101b76101f5366004611031565b610500565b61018c610208366004610f0a565b610514565b61016c61051f565b61022861022336600461107a565b6105ad565b60405190815260200161015b565b6101b76105f5565b61022860095481565b6006546001600160a01b031661018c565b61016c610609565b6101b761026e366004611095565b610618565b6101b76102813660046110d1565b610623565b61016c610294366004610f0a565b61063a565b61022860085481565b61014f6102b036600461114d565b6106a2565b6101b76102c336600461107a565b6106d0565b60006001600160e01b031982166380ac58cd60e01b14806102f957506001600160e01b03198216635b5e139f60e01b145b8061031457506301ffc9a760e01b6001600160e01b03198316145b92915050565b60606000805461032990611180565b80601f016020809104026020016040519081016040528092919081815260200182805461035590611180565b80156103a25780601f10610377576101008083540402835291602001916103a2565b820191906000526020600020905b81548152906001019060200180831161038557829003601f168201915b5050505050905090565b60006103b78261070e565b506000828152600460205260409020546001600160a01b0316610314565b6103e0828233610747565b5050565b60085460095411156104325760405162461bcd60e51b815260206004820152601260248201527113585e081cdd5c1c1b1e481c995858da195960721b60448201526064015b60405180910390fd5b61043e33600954610754565b6009805490600061044e836111ba565b9190505550565b6001600160a01b03821661047f57604051633250574960e11b815260006004820152602401610429565b600061048c83833361076e565b9050836001600160a01b0316816001600160a01b0316146104da576040516364283d7b60e01b81526001600160a01b0380861660048301526024820184905282166044820152606401610429565b50505050565b6104fb83838360405180602001604052806000815250610623565b505050565b610508610867565b60076103e0828261122f565b60006103148261070e565b6007805461052c90611180565b80601f016020809104026020016040519081016040528092919081815260200182805461055890611180565b80156105a55780601f1061057a576101008083540402835291602001916105a5565b820191906000526020600020905b81548152906001019060200180831161058857829003601f168201915b505050505081565b60006001600160a01b0382166105d9576040516322718ad960e21b815260006004820152602401610429565b506001600160a01b031660009081526003602052604090205490565b6105fd610867565b6106076000610894565b565b60606001805461032990611180565b6103e03383836108e6565b61062e848484610455565b6104da84848484610985565b60606106458261070e565b506000610650610aae565b90506000815111610670576040518060200160405280600081525061069b565b8061067a84610abd565b60405160200161068b9291906112ef565b6040516020818303038152906040525b9392505050565b6001600160a01b03918216600090815260056020908152604080832093909416825291909152205460ff1690565b6106d8610867565b6001600160a01b03811661070257604051631e4fbdf760e01b815260006004820152602401610429565b61070b81610894565b50565b6000818152600260205260408120546001600160a01b03168061031457604051637e27328960e01b815260048101849052602401610429565b6104fb8383836001610b50565b6103e0828260405180602001604052806000815250610c56565b6000828152600260205260408120546001600160a01b039081169083161561079b5761079b818486610c6d565b6001600160a01b038116156107d9576107b8600085600080610b50565b6001600160a01b038116600090815260036020526040902080546000190190555b6001600160a01b03851615610808576001600160a01b0385166000908152600360205260409020805460010190555b60008481526002602052604080822080546001600160a01b0319166001600160a01b0389811691821790925591518793918516917fddf252ad1be2c89b69c2b068fc378daa952ba7f163c4a11628f55a4df523b3ef91a4949350505050565b6006546001600160a01b031633146106075760405163118cdaa760e01b8152336004820152602401610429565b600680546001600160a01b038381166001600160a01b0319831681179093556040519116919082907f8be0079c531659141344cd1fd0a4f28419497f9722a3daafe3b4186f6b6457e090600090a35050565b6001600160a01b03821661091857604051630b61174360e31b81526001600160a01b0383166004820152602401610429565b6001600160a01b03838116600081815260056020908152604080832094871680845294825291829020805460ff191686151590811790915591519182527f17307eab39ab6107e8899845ad3d59bd9653f200f220920489ca2b5937696c31910160405180910390a3505050565b6001600160a01b0383163b156104da57604051630a85bd0160e11b81526001600160a01b0384169063150b7a02906109c790339088908790879060040161131e565b6020604051808303816000875af1925050508015610a02575060408051601f3d908101601f191682019092526109ff9181019061135b565b60015b610a6b573d808015610a30576040519150601f19603f3d011682016040523d82523d6000602084013e610a35565b606091505b508051600003610a6357604051633250574960e11b81526001600160a01b0385166004820152602401610429565b805181602001fd5b6001600160e01b03198116630a85bd0160e11b14610aa757604051633250574960e11b81526001600160a01b0385166004820152602401610429565b5050505050565b60606007805461032990611180565b60606000610aca83610cd1565b600101905060008167ffffffffffffffff811115610aea57610aea610fa5565b6040519080825280601f01601f191660200182016040528015610b14576020820181803683370190505b5090508181016020015b600019016f181899199a1a9b1b9c1cb0b131b232b360811b600a86061a8153600a8504945084610b1e57509392505050565b8080610b6457506001600160a01b03821615155b15610c26576000610b748461070e565b90506001600160a01b03831615801590610ba05750826001600160a01b0316816001600160a01b031614155b8015610bb35750610bb181846106a2565b155b15610bdc5760405163a9fbf51f60e01b81526001600160a01b0384166004820152602401610429565b8115610c245783856001600160a01b0316826001600160a01b03167f8c5be1e5ebec7d5bd14f71427d1e84f3dd0314c0f7b2291e5b200ac8c7c3b92560405160405180910390a45b505b5050600090815260046020526040902080546001600160a01b0319166001600160a01b0392909216919091179055565b610c608383610da9565b6104fb6000848484610985565b610c78838383610e0e565b6104fb576001600160a01b038316610ca657604051637e27328960e01b815260048101829052602401610429565b60405163177e802f60e01b81526001600160a01b038316600482015260248101829052604401610429565b60008072184f03e93ff9f4daa797ed6e38ed64bf6a1f0160401b8310610d105772184f03e93ff9f4daa797ed6e38ed64bf6a1f0160401b830492506040015b6d04ee2d6d415b85acef81000000008310610d3c576d04ee2d6d415b85acef8100000000830492506020015b662386f26fc100008310610d5a57662386f26fc10000830492506010015b6305f5e1008310610d72576305f5e100830492506008015b6127108310610d8657612710830492506004015b60648310610d98576064830492506002015b600a83106103145760010192915050565b6001600160a01b038216610dd357604051633250574960e11b815260006004820152602401610429565b6000610de18383600061076e565b90506001600160a01b038116156104fb576040516339e3563760e11b815260006004820152602401610429565b60006001600160a01b03831615801590610e6c5750826001600160a01b0316846001600160a01b03161480610e485750610e4884846106a2565b80610e6c57506000828152600460205260409020546001600160a01b038481169116145b949350505050565b6001600160e01b03198116811461070b57600080fd5b600060208284031215610e9c57600080fd5b813561069b81610e74565b60005b83811015610ec2578181015183820152602001610eaa565b50506000910152565b60008151808452610ee3816020860160208601610ea7565b601f01601f19169290920160200192915050565b60208152600061069b6020830184610ecb565b600060208284031215610f1c57600080fd5b5035919050565b80356001600160a01b0381168114610f3a57600080fd5b919050565b60008060408385031215610f5257600080fd5b610f5b83610f23565b946020939093013593505050565b600080600060608486031215610f7e57600080fd5b610f8784610f23565b9250610f9560208501610f23565b9150604084013590509250925092565b634e487b7160e01b600052604160045260246000fd5b600067ffffffffffffffff80841115610fd657610fd6610fa5565b604051601f8501601f19908116603f01168101908282118183101715610ffe57610ffe610fa5565b8160405280935085815286868601111561101757600080fd5b858560208301376000602087830101525050509392505050565b60006020828403121561104357600080fd5b813567ffffffffffffffff81111561105a57600080fd5b8201601f8101841361106b57600080fd5b610e6c84823560208401610fbb565b60006020828403121561108c57600080fd5b61069b82610f23565b600080604083850312156110a857600080fd5b6110b183610f23565b9150602083013580151581146110c657600080fd5b809150509250929050565b600080600080608085870312156110e757600080fd5b6110f085610f23565b93506110fe60208601610f23565b925060408501359150606085013567ffffffffffffffff81111561112157600080fd5b8501601f8101871361113257600080fd5b61114187823560208401610fbb565b91505092959194509250565b6000806040838503121561116057600080fd5b61116983610f23565b915061117760208401610f23565b90509250929050565b600181811c9082168061119457607f821691505b6020821081036111b457634e487b7160e01b600052602260045260246000fd5b50919050565b6000600182016111da57634e487b7160e01b600052601160045260246000fd5b5060010190565b601f8211156104fb57600081815260208120601f850160051c810160208610156112085750805b601f850160051c820191505b8181101561122757828155600101611214565b505050505050565b815167ffffffffffffffff81111561124957611249610fa5565b61125d816112578454611180565b846111e1565b602080601f831160018114611292576000841561127a5750858301515b600019600386901b1c1916600185901b178555611227565b600085815260208120601f198616915b828110156112c1578886015182559484019460019091019084016112a2565b50858210156112df5787850151600019600388901b60f8161c191681555b5050505050600190811b01905550565b60008351611301818460208801610ea7565b835190830190611315818360208801610ea7565b01949350505050565b6001600160a01b038581168252841660208201526040810183905260806060820181905260009061135190830184610ecb565b9695505050505050565b60006020828403121561136d57600080fd5b815161069b81610e7456fea26469706673582212207de4a59f74da645b66ac26499aeb0c4410248c1e635365d4cb4caabcd1cddd1c64736f6c63430008140033",
  "linkReferences": {},
  "deployedLinkReferences": {}
}